{
  "contractName": "TollCoin",
  "abi": [
    {
      "inputs": [],
      "stateMutability": "nonpayable",
      "type": "constructor"
    },
    {
      "anonymous": false,
      "inputs": [
        {
          "indexed": true,
          "internalType": "address",
          "name": "from",
          "type": "address"
        },
        {
          "indexed": true,
          "internalType": "address",
          "name": "to",
          "type": "address"
        },
        {
          "indexed": false,
          "internalType": "uint256",
          "name": "value",
          "type": "uint256"
        }
      ],
      "name": "Transfer",
      "type": "event"
    },
    {
      "inputs": [
        {
          "internalType": "address",
          "name": "",
          "type": "address"
        }
      ],
      "name": "ContractorsReg",
      "outputs": [
        {
          "internalType": "string",
          "name": "contractorName",
          "type": "string"
        },
        {
          "internalType": "uint256",
          "name": "cBalance",
          "type": "uint256"
        },
        {
          "internalType": "bool",
          "name": "cExists",
          "type": "bool"
        }
      ],
      "stateMutability": "view",
      "type": "function",
      "constant": true
    },
    {
      "inputs": [
        {
          "internalType": "address",
          "name": "",
          "type": "address"
        }
      ],
      "name": "UsersReg",
      "outputs": [
        {
          "internalType": "string",
          "name": "vehicleNum",
          "type": "string"
        },
        {
          "internalType": "string",
          "name": "userName",
          "type": "string"
        },
        {
          "internalType": "uint256",
          "name": "userBalance",
          "type": "uint256"
        },
        {
          "internalType": "bool",
          "name": "userExists",
          "type": "bool"
        }
      ],
      "stateMutability": "view",
      "type": "function",
      "constant": true
    },
    {
      "inputs": [
        {
          "internalType": "address",
          "name": "tokenOwner",
          "type": "address"
        }
      ],
      "name": "balanceOf",
      "outputs": [
        {
          "internalType": "uint256",
          "name": "",
          "type": "uint256"
        }
      ],
      "stateMutability": "view",
      "type": "function",
      "constant": true
    },
    {
      "inputs": [
        {
          "internalType": "address",
          "name": "",
          "type": "address"
        }
      ],
      "name": "balances",
      "outputs": [
        {
          "internalType": "uint256",
          "name": "",
          "type": "uint256"
        }
      ],
      "stateMutability": "view",
      "type": "function",
      "constant": true
    },
    {
      "inputs": [],
      "name": "decimals",
      "outputs": [
        {
          "internalType": "uint256",
          "name": "",
          "type": "uint256"
        }
      ],
      "stateMutability": "view",
      "type": "function",
      "constant": true
    },
    {
      "inputs": [],
      "name": "name",
      "outputs": [
        {
          "internalType": "string",
          "name": "",
          "type": "string"
        }
      ],
      "stateMutability": "view",
      "type": "function",
      "constant": true
    },
    {
      "inputs": [],
      "name": "owner",
      "outputs": [
        {
          "internalType": "address payable",
          "name": "",
          "type": "address"
        }
      ],
      "stateMutability": "view",
      "type": "function",
      "constant": true
    },
    {
      "inputs": [
        {
          "internalType": "string",
          "name": "",
          "type": "string"
        }
      ],
      "name": "rfidMap",
      "outputs": [
        {
          "internalType": "address",
          "name": "userAd",
          "type": "address"
        },
        {
          "internalType": "bool",
          "name": "userExist",
          "type": "bool"
        }
      ],
      "stateMutability": "view",
      "type": "function",
      "constant": true
    },
    {
      "inputs": [],
      "name": "symbol",
      "outputs": [
        {
          "internalType": "string",
          "name": "",
          "type": "string"
        }
      ],
      "stateMutability": "view",
      "type": "function",
      "constant": true
    },
    {
      "inputs": [],
      "name": "totalSupply",
      "outputs": [
        {
          "internalType": "uint256",
          "name": "",
          "type": "uint256"
        }
      ],
      "stateMutability": "view",
      "type": "function",
      "constant": true
    },
    {
      "inputs": [
        {
          "internalType": "address",
          "name": "sender",
          "type": "address"
        },
        {
          "internalType": "address",
          "name": "recipient",
          "type": "address"
        },
        {
          "internalType": "uint256",
          "name": "amount",
          "type": "uint256"
        }
      ],
      "name": "transferFrom",
      "outputs": [
        {
          "internalType": "bool",
          "name": "",
          "type": "bool"
        }
      ],
      "stateMutability": "nonpayable",
      "type": "function"
    },
    {
      "inputs": [
        {
          "internalType": "address",
          "name": "_userAd",
          "type": "address"
        },
        {
          "internalType": "string",
          "name": "_vehicleNum",
          "type": "string"
        },
        {
          "internalType": "string",
          "name": "_rfidCode",
          "type": "string"
        },
        {
          "internalType": "string",
          "name": "_userName",
          "type": "string"
        }
      ],
      "name": "newUser",
      "outputs": [
        {
          "internalType": "bool",
          "name": "",
          "type": "bool"
        }
      ],
      "stateMutability": "nonpayable",
      "type": "function"
    },
    {
      "inputs": [
        {
          "internalType": "address",
          "name": "_cAdd",
          "type": "address"
        },
        {
          "internalType": "string",
          "name": "_contactorName",
          "type": "string"
        }
      ],
      "name": "newContractor",
      "outputs": [
        {
          "internalType": "bool",
          "name": "",
          "type": "bool"
        }
      ],
      "stateMutability": "nonpayable",
      "type": "function"
    },
    {
      "inputs": [
        {
          "internalType": "address",
          "name": "_user",
          "type": "address"
        }
      ],
      "name": "checkBal",
      "outputs": [
        {
          "internalType": "uint256",
          "name": "",
          "type": "uint256"
        }
      ],
      "stateMutability": "view",
      "type": "function",
      "constant": true
    },
    {
      "inputs": [
        {
          "internalType": "address",
          "name": "_user",
          "type": "address"
        }
      ],
      "name": "getUserProfile",
      "outputs": [
        {
          "internalType": "string",
          "name": "",
          "type": "string"
        },
        {
          "internalType": "string",
          "name": "",
          "type": "string"
        },
        {
          "internalType": "uint256",
          "name": "",
          "type": "uint256"
        }
      ],
      "stateMutability": "view",
      "type": "function",
      "constant": true
    },
    {
      "inputs": [
        {
          "internalType": "address",
          "name": "_cont",
          "type": "address"
        }
      ],
      "name": "getContractorProfile",
      "outputs": [
        {
          "internalType": "string",
          "name": "",
          "type": "string"
        },
        {
          "internalType": "uint256",
          "name": "",
          "type": "uint256"
        }
      ],
      "stateMutability": "view",
      "type": "function",
      "constant": true
    },
    {
      "inputs": [
        {
          "internalType": "address",
          "name": "_user",
          "type": "address"
        },
        {
          "internalType": "uint256",
          "name": "_token",
          "type": "uint256"
        }
      ],
      "name": "buyTokens",
      "outputs": [],
      "stateMutability": "payable",
      "type": "function",
      "payable": true
    },
    {
      "inputs": [
        {
          "internalType": "address",
          "name": "_cont",
          "type": "address"
        },
        {
          "internalType": "address",
          "name": "_user",
          "type": "address"
        },
        {
          "internalType": "uint256",
          "name": "amount",
          "type": "uint256"
        }
      ],
      "name": "payToll",
      "outputs": [
        {
          "internalType": "bool",
          "name": "",
          "type": "bool"
        }
      ],
      "stateMutability": "nonpayable",
      "type": "function"
    },
    {
      "inputs": [
        {
          "internalType": "address payable",
          "name": "_contAdd",
          "type": "address"
        },
        {
          "internalType": "uint256",
          "name": "_tokens",
          "type": "uint256"
        }
      ],
      "name": "withDrawTokens",
      "outputs": [
        {
          "internalType": "bool",
          "name": "",
          "type": "bool"
        }
      ],
      "stateMutability": "payable",
      "type": "function",
      "payable": true
    },
    {
      "inputs": [
        {
          "internalType": "string",
          "name": "rfidCode",
          "type": "string"
        }
      ],
      "name": "rfidUserId",
      "outputs": [
        {
          "internalType": "address",
          "name": "",
          "type": "address"
        }
      ],
      "stateMutability": "view",
      "type": "function",
      "constant": true
    },
    {
      "inputs": [
        {
          "internalType": "address",
          "name": "_contAdd",
          "type": "address"
        }
      ],
      "name": "contractorExists",
      "outputs": [
        {
          "internalType": "bool",
          "name": "",
          "type": "bool"
        }
      ],
      "stateMutability": "view",
      "type": "function",
      "constant": true
    }
  ],
  "bytecode": "0x6080604052678ac7230489e8000060015534801561001c57600080fd5b5033600260006101000a81548173ffffffffffffffffffffffffffffffffffffffff021916908373ffffffffffffffffffffffffffffffffffffffff1602179055506138418061006d6000396000f3fe60806040526004361061012a5760003560e01c80636ca0022c116100ab57806395d89b411161006f57806395d89b411461045c57806397e638bb14610487578063987ee156146104c45780639ca079da14610503578063c917c8a914610543578063ea435a12146105815761012a565b80636ca0022c1461033b57806370a082311461037a5780637af1f83a146103b75780638da5cb5b146103f4578063959d52971461041f5761012a565b806327e235e3116100f257806327e235e31461021b578063313ce56714610258578063467da8df146102835780634a77fe19146102c0578063584a0927146102fe5761012a565b806306fdde031461012f5780630752881a1461015a5780630e451c4d1461017657806318160ddd146101b357806323b872dd146101de575b600080fd5b34801561013b57600080fd5b506101446105b1565b6040516101519190612671565b60405180910390f35b610174600480360381019061016f919061273b565b6105ea565b005b34801561018257600080fd5b5061019d6004803603810190610198919061277b565b610a72565b6040516101aa91906127c3565b60405180910390f35b3480156101bf57600080fd5b506101c8610acb565b6040516101d591906127ed565b60405180910390f35b3480156101ea57600080fd5b5061020560048036038101906102009190612808565b610ad5565b60405161021291906127c3565b60405180910390f35b34801561022757600080fd5b50610242600480360381019061023d919061277b565b610c5f565b60405161024f91906127ed565b60405180910390f35b34801561026457600080fd5b5061026d610c77565b60405161027a91906127ed565b60405180910390f35b34801561028f57600080fd5b506102aa60048036038101906102a59190612808565b610c7c565b6040516102b791906127c3565b60405180910390f35b3480156102cc57600080fd5b506102e760048036038101906102e2919061277b565b61102b565b6040516102f592919061285b565b60405180910390f35b34801561030a57600080fd5b506103256004803603810190610320919061277b565b61124d565b60405161033291906127ed565b60405180910390f35b34801561034757600080fd5b50610362600480360381019061035d919061277b565b61139d565b6040516103719392919061288b565b60405180910390f35b34801561038657600080fd5b506103a1600480360381019061039c919061277b565b61145c565b6040516103ae91906127ed565b60405180910390f35b3480156103c357600080fd5b506103de60048036038101906103d991906129fe565b6114a4565b6040516103eb91906127c3565b60405180910390f35b34801561040057600080fd5b506104096117c6565b6040516104169190612a7b565b60405180910390f35b34801561042b57600080fd5b5061044660048036038101906104419190612a96565b6117ec565b60405161045391906127c3565b60405180910390f35b34801561046857600080fd5b50610471611be9565b60405161047e9190612671565b60405180910390f35b34801561049357600080fd5b506104ae60048036038101906104a99190612b51565b611c22565b6040516104bb9190612ba9565b60405180910390f35b3480156104d057600080fd5b506104eb60048036038101906104e6919061277b565b611ce2565b6040516104fa93929190612bc4565b60405180910390f35b34801561050f57600080fd5b5061052a6004803603810190610525919061277b565b611fd7565b60405161053a9493929190612c09565b60405180910390f35b34801561054f57600080fd5b5061056a60048036038101906105659190612b51565b612124565b604051610578929190612c5c565b60405180910390f35b61059b60048036038101906105969190612cb1565b61218b565b6040516105a891906127c3565b60405180910390f35b6040518060400160405280600881526020017f546f6c6c436f696e00000000000000000000000000000000000000000000000081525081565b600073ffffffffffffffffffffffffffffffffffffffff168273ffffffffffffffffffffffffffffffffffffffff1603610659576040517f08c379a000000000000000000000000000000000000000000000000000000000815260040161065090612d3d565b60405180910390fd5b60011515600460008473ffffffffffffffffffffffffffffffffffffffff1673ffffffffffffffffffffffffffffffffffffffff16815260200190815260200160002060030160009054906101000a900460ff161515146106ef576040517f08c379a00000000000000000000000000000000000000000000000000000000081526004016106e690612da9565b60405180910390fd5b66038d7ea4c68000816107029190612df8565b8273ffffffffffffffffffffffffffffffffffffffff1631101561075b576040517f08c379a000000000000000000000000000000000000000000000000000000000815260040161075290612ec4565b60405180910390fd5b66038d7ea4c680008161076e9190612df8565b600080600260009054906101000a900473ffffffffffffffffffffffffffffffffffffffff1673ffffffffffffffffffffffffffffffffffffffff1673ffffffffffffffffffffffffffffffffffffffff168152602001908152602001600020541161080457610802612710600260009054906101000a900473ffffffffffffffffffffffffffffffffffffffff166123d0565b505b600260009054906101000a900473ffffffffffffffffffffffffffffffffffffffff1673ffffffffffffffffffffffffffffffffffffffff166108fc66038d7ea4c68000836108539190612df8565b9081150290604051600060405180830381858888f1935050505015801561087e573d6000803e3d6000fd5b506108f281600080600260009054906101000a900473ffffffffffffffffffffffffffffffffffffffff1673ffffffffffffffffffffffffffffffffffffffff1673ffffffffffffffffffffffffffffffffffffffff168152602001908152602001600020546124e290919063ffffffff16565b600080600260009054906101000a900473ffffffffffffffffffffffffffffffffffffffff1673ffffffffffffffffffffffffffffffffffffffff1673ffffffffffffffffffffffffffffffffffffffff168152602001908152602001600020819055506109a7816000808573ffffffffffffffffffffffffffffffffffffffff1673ffffffffffffffffffffffffffffffffffffffff1681526020019081526020016000205461250990919063ffffffff16565b6000808473ffffffffffffffffffffffffffffffffffffffff1673ffffffffffffffffffffffffffffffffffffffff168152602001908152602001600020819055506000808373ffffffffffffffffffffffffffffffffffffffff1673ffffffffffffffffffffffffffffffffffffffff16815260200190815260200160002054600460008473ffffffffffffffffffffffffffffffffffffffff1673ffffffffffffffffffffffffffffffffffffffff168152602001908152602001600020600201819055505050565b6000600560008373ffffffffffffffffffffffffffffffffffffffff1673ffffffffffffffffffffffffffffffffffffffff16815260200190815260200160002060020160009054906101000a900460ff169050919050565b6000600154905090565b6000816000808673ffffffffffffffffffffffffffffffffffffffff1673ffffffffffffffffffffffffffffffffffffffff16815260200190815260200160002054610b219190612ee4565b6000808673ffffffffffffffffffffffffffffffffffffffff1673ffffffffffffffffffffffffffffffffffffffff16815260200190815260200160002081905550816000808573ffffffffffffffffffffffffffffffffffffffff1673ffffffffffffffffffffffffffffffffffffffff16815260200190815260200160002054610bad9190612f18565b6000808573ffffffffffffffffffffffffffffffffffffffff1673ffffffffffffffffffffffffffffffffffffffff168152602001908152602001600020819055508273ffffffffffffffffffffffffffffffffffffffff163373ffffffffffffffffffffffffffffffffffffffff167fddf252ad1be2c89b69c2b068fc378daa952ba7f163c4a11628f55a4df523b3ef84604051610c4c91906127ed565b60405180910390a3600190509392505050565b60006020528060005260406000206000915090505481565b601281565b60008073ffffffffffffffffffffffffffffffffffffffff168473ffffffffffffffffffffffffffffffffffffffff1603610cec576040517f08c379a0000000000000000000000000000000000000000000000000000000008152600401610ce390612fba565b60405180910390fd5b600073ffffffffffffffffffffffffffffffffffffffff168373ffffffffffffffffffffffffffffffffffffffff1603610d5b576040517f08c379a0000000000000000000000000000000000000000000000000000000008152600401610d5290613026565b60405180910390fd5b60011515600460008573ffffffffffffffffffffffffffffffffffffffff1673ffffffffffffffffffffffffffffffffffffffff16815260200190815260200160002060030160009054906101000a900460ff16151514610df1576040517f08c379a0000000000000000000000000000000000000000000000000000000008152600401610de890612da9565b60405180910390fd5b60011515600560008673ffffffffffffffffffffffffffffffffffffffff1673ffffffffffffffffffffffffffffffffffffffff16815260200190815260200160002060020160009054906101000a900460ff16151514610e87576040517f08c379a0000000000000000000000000000000000000000000000000000000008152600401610e7e90613092565b60405180910390fd5b81600460008573ffffffffffffffffffffffffffffffffffffffff1673ffffffffffffffffffffffffffffffffffffffff168152602001908152602001600020600201541015610f0c576040517f08c379a0000000000000000000000000000000000000000000000000000000008152600401610f03906130fe565b60405180910390fd5b610f17838584610ad5565b50610f218361145c565b600460008573ffffffffffffffffffffffffffffffffffffffff1673ffffffffffffffffffffffffffffffffffffffff16815260200190815260200160002060020181905550610f708461145c565b600560008673ffffffffffffffffffffffffffffffffffffffff1673ffffffffffffffffffffffffffffffffffffffff16815260200190815260200160002060010181905550600064174876e8008442604051602001610fd1929190613187565b6040516020818303038152906040528051906020012060001c610ff491906131e2565b9050600381908060018154018082558091505060019003906000526020600020016000909190919091505560019150509392505050565b606060008073ffffffffffffffffffffffffffffffffffffffff168373ffffffffffffffffffffffffffffffffffffffff160361109d576040517f08c379a00000000000000000000000000000000000000000000000000000000081526004016110949061325f565b60405180910390fd5b60011515600560008573ffffffffffffffffffffffffffffffffffffffff1673ffffffffffffffffffffffffffffffffffffffff16815260200190815260200160002060020160009054906101000a900460ff16151514611133576040517f08c379a000000000000000000000000000000000000000000000000000000000815260040161112a906132cb565b60405180910390fd5b600560008473ffffffffffffffffffffffffffffffffffffffff1673ffffffffffffffffffffffffffffffffffffffff168152602001908152602001600020600001600560008573ffffffffffffffffffffffffffffffffffffffff1673ffffffffffffffffffffffffffffffffffffffff168152602001908152602001600020600101548180546111c49061331a565b80601f01602080910402602001604051908101604052809291908181526020018280546111f09061331a565b801561123d5780601f106112125761010080835404028352916020019161123d565b820191906000526020600020905b81548152906001019060200180831161122057829003601f168201915b5050505050915091509150915091565b60008073ffffffffffffffffffffffffffffffffffffffff168273ffffffffffffffffffffffffffffffffffffffff16036112bd576040517f08c379a00000000000000000000000000000000000000000000000000000000081526004016112b49061325f565b60405180910390fd5b60011515600460008473ffffffffffffffffffffffffffffffffffffffff1673ffffffffffffffffffffffffffffffffffffffff16815260200190815260200160002060030160009054906101000a900460ff16151514611353576040517f08c379a000000000000000000000000000000000000000000000000000000000815260040161134a906132cb565b60405180910390fd5b600460008373ffffffffffffffffffffffffffffffffffffffff1673ffffffffffffffffffffffffffffffffffffffff168152602001908152602001600020600201549050919050565b60056020528060005260406000206000915090508060000180546113c09061331a565b80601f01602080910402602001604051908101604052809291908181526020018280546113ec9061331a565b80156114395780601f1061140e57610100808354040283529160200191611439565b820191906000526020600020905b81548152906001019060200180831161141c57829003601f168201915b5050505050908060010154908060020160009054906101000a900460ff16905083565b60008060008373ffffffffffffffffffffffffffffffffffffffff1673ffffffffffffffffffffffffffffffffffffffff168152602001908152602001600020549050919050565b60008073ffffffffffffffffffffffffffffffffffffffff168373ffffffffffffffffffffffffffffffffffffffff1603611514576040517f08c379a000000000000000000000000000000000000000000000000000000000815260040161150b9061325f565b60405180910390fd5b600260009054906101000a900473ffffffffffffffffffffffffffffffffffffffff1673ffffffffffffffffffffffffffffffffffffffff168373ffffffffffffffffffffffffffffffffffffffff16036115a4576040517f08c379a000000000000000000000000000000000000000000000000000000000815260040161159b90613397565b60405180910390fd5b60001515600460008573ffffffffffffffffffffffffffffffffffffffff1673ffffffffffffffffffffffffffffffffffffffff16815260200190815260200160002060030160009054906101000a900460ff1615151461163a576040517f08c379a000000000000000000000000000000000000000000000000000000000815260040161163190613429565b60405180910390fd5b60001515600560008573ffffffffffffffffffffffffffffffffffffffff1673ffffffffffffffffffffffffffffffffffffffff16815260200190815260200160002060020160009054906101000a900460ff161515146116d0576040517f08c379a00000000000000000000000000000000000000000000000000000000081526004016116c790613495565b60405180910390fd5b60008060008573ffffffffffffffffffffffffffffffffffffffff1673ffffffffffffffffffffffffffffffffffffffff1681526020019081526020016000208190555060405180606001604052808381526020016000815260200160011515815250600560008573ffffffffffffffffffffffffffffffffffffffff1673ffffffffffffffffffffffffffffffffffffffff168152602001908152602001600020600082015181600001908051906020019061178e929190612535565b506020820151816001015560408201518160020160006101000a81548160ff0219169083151502179055509050506001905092915050565b600260009054906101000a900473ffffffffffffffffffffffffffffffffffffffff1681565b60008073ffffffffffffffffffffffffffffffffffffffff168573ffffffffffffffffffffffffffffffffffffffff160361185c576040517f08c379a000000000000000000000000000000000000000000000000000000000815260040161185390612d3d565b60405180910390fd5b600260009054906101000a900473ffffffffffffffffffffffffffffffffffffffff1673ffffffffffffffffffffffffffffffffffffffff168573ffffffffffffffffffffffffffffffffffffffff16036118ec576040517f08c379a00000000000000000000000000000000000000000000000000000000081526004016118e390613501565b60405180910390fd5b60001515600460008773ffffffffffffffffffffffffffffffffffffffff1673ffffffffffffffffffffffffffffffffffffffff16815260200190815260200160002060030160009054906101000a900460ff16151514611982576040517f08c379a00000000000000000000000000000000000000000000000000000000081526004016119799061356d565b60405180910390fd5b60001515600560008773ffffffffffffffffffffffffffffffffffffffff1673ffffffffffffffffffffffffffffffffffffffff16815260200190815260200160002060020160009054906101000a900460ff16151514611a18576040517f08c379a0000000000000000000000000000000000000000000000000000000008152600401611a0f906135ff565b60405180910390fd5b60405180608001604052808581526020018381526020016000815260200160011515815250600460008773ffffffffffffffffffffffffffffffffffffffff1673ffffffffffffffffffffffffffffffffffffffff1681526020019081526020016000206000820151816000019080519060200190611a98929190612535565b506020820151816001019080519060200190611ab5929190612535565b506040820151816002015560608201518160030160006101000a81548160ff02191690831515021790555090505060008060008773ffffffffffffffffffffffffffffffffffffffff1673ffffffffffffffffffffffffffffffffffffffff1681526020019081526020016000208190555060405180604001604052808673ffffffffffffffffffffffffffffffffffffffff16815260200160011515815250600684604051611b65919061365b565b908152602001604051809103902060008201518160000160006101000a81548173ffffffffffffffffffffffffffffffffffffffff021916908373ffffffffffffffffffffffffffffffffffffffff16021790555060208201518160000160146101000a81548160ff02191690831515021790555090505060019050949350505050565b6040518060400160405280600281526020017f544300000000000000000000000000000000000000000000000000000000000081525081565b600060011515600683604051611c38919061365b565b908152602001604051809103902060000160149054906101000a900460ff16151514611c99576040517f08c379a0000000000000000000000000000000000000000000000000000000008152600401611c90906136be565b60405180910390fd5b600682604051611ca9919061365b565b908152602001604051809103902060000160009054906101000a900473ffffffffffffffffffffffffffffffffffffffff169050919050565b60608060008073ffffffffffffffffffffffffffffffffffffffff168473ffffffffffffffffffffffffffffffffffffffff1603611d55576040517f08c379a0000000000000000000000000000000000000000000000000000000008152600401611d4c9061325f565b60405180910390fd5b60011515600460008673ffffffffffffffffffffffffffffffffffffffff1673ffffffffffffffffffffffffffffffffffffffff16815260200190815260200160002060030160009054906101000a900460ff16151514611deb576040517f08c379a0000000000000000000000000000000000000000000000000000000008152600401611de2906132cb565b60405180910390fd5b600460008573ffffffffffffffffffffffffffffffffffffffff1673ffffffffffffffffffffffffffffffffffffffff168152602001908152602001600020600101600460008673ffffffffffffffffffffffffffffffffffffffff1673ffffffffffffffffffffffffffffffffffffffff168152602001908152602001600020600001600460008773ffffffffffffffffffffffffffffffffffffffff1673ffffffffffffffffffffffffffffffffffffffff16815260200190815260200160002060020154828054611ebe9061331a565b80601f0160208091040260200160405190810160405280929190818152602001828054611eea9061331a565b8015611f375780601f10611f0c57610100808354040283529160200191611f37565b820191906000526020600020905b815481529060010190602001808311611f1a57829003601f168201915b50505050509250818054611f4a9061331a565b80601f0160208091040260200160405190810160405280929190818152602001828054611f769061331a565b8015611fc35780601f10611f9857610100808354040283529160200191611fc3565b820191906000526020600020905b815481529060010190602001808311611fa657829003601f168201915b505050505091509250925092509193909250565b6004602052806000526040600020600091509050806000018054611ffa9061331a565b80601f01602080910402602001604051908101604052809291908181526020018280546120269061331a565b80156120735780601f1061204857610100808354040283529160200191612073565b820191906000526020600020905b81548152906001019060200180831161205657829003601f168201915b5050505050908060010180546120889061331a565b80601f01602080910402602001604051908101604052809291908181526020018280546120b49061331a565b80156121015780601f106120d657610100808354040283529160200191612101565b820191906000526020600020905b8154815290600101906020018083116120e457829003601f168201915b5050505050908060020154908060030160009054906101000a900460ff16905084565b6006818051602081018201805184825260208301602085012081835280955050505050506000915090508060000160009054906101000a900473ffffffffffffffffffffffffffffffffffffffff16908060000160149054906101000a900460ff16905082565b600061219633610a72565b6121d5576040517f08c379a00000000000000000000000000000000000000000000000000000000081526004016121cc90613750565b60405180910390fd5b60011515600560008573ffffffffffffffffffffffffffffffffffffffff1673ffffffffffffffffffffffffffffffffffffffff16815260200190815260200160002060020160009054906101000a900460ff1615151461226b576040517f08c379a000000000000000000000000000000000000000000000000000000000815260040161226290613092565b60405180910390fd5b81600560008573ffffffffffffffffffffffffffffffffffffffff1673ffffffffffffffffffffffffffffffffffffffff1681526020019081526020016000206001015410156122f0576040517f08c379a00000000000000000000000000000000000000000000000000000000081526004016122e7906137bc565b60405180910390fd5b61231d83600260009054906101000a900473ffffffffffffffffffffffffffffffffffffffff1684610ad5565b508273ffffffffffffffffffffffffffffffffffffffff166108fc66038d7ea4c680008461234b9190612df8565b9081150290604051600060405180830381858888f19350505050158015612376573d6000803e3d6000fd5b506123808361145c565b600560008573ffffffffffffffffffffffffffffffffffffffff1673ffffffffffffffffffffffffffffffffffffffff168152602001908152602001600020600101819055506001905092915050565b6000826001546123e09190612f18565b600181905550826000808473ffffffffffffffffffffffffffffffffffffffff1673ffffffffffffffffffffffffffffffffffffffff168152602001908152602001600020546124309190612f18565b6000808473ffffffffffffffffffffffffffffffffffffffff1673ffffffffffffffffffffffffffffffffffffffff168152602001908152602001600020819055508173ffffffffffffffffffffffffffffffffffffffff16600073ffffffffffffffffffffffffffffffffffffffff167fddf252ad1be2c89b69c2b068fc378daa952ba7f163c4a11628f55a4df523b3ef856040516124d091906127ed565b60405180910390a36001905092915050565b6000828211156124f5576124f46137dc565b5b81836125019190612ee4565b905092915050565b60008082846125189190612f18565b90508381101561252b5761252a6137dc565b5b8091505092915050565b8280546125419061331a565b90600052602060002090601f01602090048101928261256357600085556125aa565b82601f1061257c57805160ff19168380011785556125aa565b828001600101855582156125aa579182015b828111156125a957825182559160200191906001019061258e565b5b5090506125b791906125bb565b5090565b5b808211156125d45760008160009055506001016125bc565b5090565b600081519050919050565b600082825260208201905092915050565b60005b838110156126125780820151818401526020810190506125f7565b83811115612621576000848401525b50505050565b6000601f19601f8301169050919050565b6000612643826125d8565b61264d81856125e3565b935061265d8185602086016125f4565b61266681612627565b840191505092915050565b6000602082019050818103600083015261268b8184612638565b905092915050565b6000604051905090565b600080fd5b600080fd5b600073ffffffffffffffffffffffffffffffffffffffff82169050919050565b60006126d2826126a7565b9050919050565b6126e2816126c7565b81146126ed57600080fd5b50565b6000813590506126ff816126d9565b92915050565b6000819050919050565b61271881612705565b811461272357600080fd5b50565b6000813590506127358161270f565b92915050565b600080604083850312156127525761275161269d565b5b6000612760858286016126f0565b925050602061277185828601612726565b9150509250929050565b6000602082840312156127915761279061269d565b5b600061279f848285016126f0565b91505092915050565b60008115159050919050565b6127bd816127a8565b82525050565b60006020820190506127d860008301846127b4565b92915050565b6127e781612705565b82525050565b600060208201905061280260008301846127de565b92915050565b6000806000606084860312156128215761282061269d565b5b600061282f868287016126f0565b9350506020612840868287016126f0565b925050604061285186828701612726565b9150509250925092565b600060408201905081810360008301526128758185612638565b905061288460208301846127de565b9392505050565b600060608201905081810360008301526128a58186612638565b90506128b460208301856127de565b6128c160408301846127b4565b949350505050565b600080fd5b600080fd5b7f4e487b7100000000000000000000000000000000000000000000000000000000600052604160045260246000fd5b61290b82612627565b810181811067ffffffffffffffff8211171561292a576129296128d3565b5b80604052505050565b600061293d612693565b90506129498282612902565b919050565b600067ffffffffffffffff821115612969576129686128d3565b5b61297282612627565b9050602081019050919050565b82818337600083830152505050565b60006129a161299c8461294e565b612933565b9050828152602081018484840111156129bd576129bc6128ce565b5b6129c884828561297f565b509392505050565b600082601f8301126129e5576129e46128c9565b5b81356129f584826020860161298e565b91505092915050565b60008060408385031215612a1557612a1461269d565b5b6000612a23858286016126f0565b925050602083013567ffffffffffffffff811115612a4457612a436126a2565b5b612a50858286016129d0565b9150509250929050565b6000612a65826126a7565b9050919050565b612a7581612a5a565b82525050565b6000602082019050612a906000830184612a6c565b92915050565b60008060008060808587031215612ab057612aaf61269d565b5b6000612abe878288016126f0565b945050602085013567ffffffffffffffff811115612adf57612ade6126a2565b5b612aeb878288016129d0565b935050604085013567ffffffffffffffff811115612b0c57612b0b6126a2565b5b612b18878288016129d0565b925050606085013567ffffffffffffffff811115612b3957612b386126a2565b5b612b45878288016129d0565b91505092959194509250565b600060208284031215612b6757612b6661269d565b5b600082013567ffffffffffffffff811115612b8557612b846126a2565b5b612b91848285016129d0565b91505092915050565b612ba3816126c7565b82525050565b6000602082019050612bbe6000830184612b9a565b92915050565b60006060820190508181036000830152612bde8186612638565b90508181036020830152612bf28185612638565b9050612c0160408301846127de565b949350505050565b60006080820190508181036000830152612c238187612638565b90508181036020830152612c378186612638565b9050612c4660408301856127de565b612c5360608301846127b4565b95945050505050565b6000604082019050612c716000830185612b9a565b612c7e60208301846127b4565b9392505050565b612c8e81612a5a565b8114612c9957600080fd5b50565b600081359050612cab81612c85565b92915050565b60008060408385031215612cc857612cc761269d565b5b6000612cd685828601612c9c565b9250506020612ce785828601612726565b9150509250929050565b7f496e76616c696420616464726573730000000000000000000000000000000000600082015250565b6000612d27600f836125e3565b9150612d3282612cf1565b602082019050919050565b60006020820190508181036000830152612d5681612d1a565b9050919050565b7f5573657220646f65736e74206578697374000000000000000000000000000000600082015250565b6000612d936011836125e3565b9150612d9e82612d5d565b602082019050919050565b60006020820190508181036000830152612dc281612d86565b9050919050565b7f4e487b7100000000000000000000000000000000000000000000000000000000600052601160045260246000fd5b6000612e0382612705565b9150612e0e83612705565b9250817fffffffffffffffffffffffffffffffffffffffffffffffffffffffffffffffff0483118215151615612e4757612e46612dc9565b5b828202905092915050565b7f496e73756666696369656e742065746865722062616c616e636520696e20757360008201527f65722773206163636f756e740000000000000000000000000000000000000000602082015250565b6000612eae602c836125e3565b9150612eb982612e52565b604082019050919050565b60006020820190508181036000830152612edd81612ea1565b9050919050565b6000612eef82612705565b9150612efa83612705565b925082821015612f0d57612f0c612dc9565b5b828203905092915050565b6000612f2382612705565b9150612f2e83612705565b9250827fffffffffffffffffffffffffffffffffffffffffffffffffffffffffffffffff03821115612f6357612f62612dc9565b5b828201905092915050565b7f496e76616c69642061646472657373206f6620636f6e74726163746f72000000600082015250565b6000612fa4601d836125e3565b9150612faf82612f6e565b602082019050919050565b60006020820190508181036000830152612fd381612f97565b9050919050565b7f496e76616c69642061646472657373206f662075736572000000000000000000600082015250565b60006130106017836125e3565b915061301b82612fda565b602082019050919050565b6000602082019050818103600083015261303f81613003565b9050919050565b7f436f6e74726163746f7220646f65736e74206578697374000000000000000000600082015250565b600061307c6017836125e3565b915061308782613046565b602082019050919050565b600060208201905081810360008301526130ab8161306f565b9050919050565b7f496e73756666696369656e742062616c616e6365000000000000000000000000600082015250565b60006130e86014836125e3565b91506130f3826130b2565b602082019050919050565b60006020820190508181036000830152613117816130db565b9050919050565b60008160601b9050919050565b60006131368261311e565b9050919050565b60006131488261312b565b9050919050565b61316061315b826126c7565b61313d565b82525050565b6000819050919050565b61318161317c82612705565b613166565b82525050565b6000613193828561314f565b6014820191506131a38284613170565b6020820191508190509392505050565b7f4e487b7100000000000000000000000000000000000000000000000000000000600052601260045260246000fd5b60006131ed82612705565b91506131f883612705565b925082613208576132076131b3565b5b828206905092915050565b7f496e76616c696420416464726573730000000000000000000000000000000000600082015250565b6000613249600f836125e3565b915061325482613213565b602082019050919050565b600060208201905081810360008301526132788161323c565b9050919050565b7f5573657220646f65736e74206578697374730000000000000000000000000000600082015250565b60006132b56012836125e3565b91506132c08261327f565b602082019050919050565b600060208201905081810360008301526132e4816132a8565b9050919050565b7f4e487b7100000000000000000000000000000000000000000000000000000000600052602260045260246000fd5b6000600282049050600182168061333257607f821691505b602082108103613345576133446132eb565b5b50919050565b7f4f776e65722063616e7420626520636f6e74726163746f720000000000000000600082015250565b60006133816018836125e3565b915061338c8261334b565b602082019050919050565b600060208201905081810360008301526133b081613374565b9050919050565b7f5265676973746572656420757365722063616e7420626520636f6e747261637460008201527f6f72000000000000000000000000000000000000000000000000000000000000602082015250565b60006134136022836125e3565b915061341e826133b7565b604082019050919050565b6000602082019050818103600083015261344281613406565b9050919050565b7f436f6e74726163746f7220616c72656164792065786973747300000000000000600082015250565b600061347f6019836125e3565b915061348a82613449565b602082019050919050565b600060208201905081810360008301526134ae81613472565b9050919050565b7f4f776e65722063616e7420626520757365720000000000000000000000000000600082015250565b60006134eb6012836125e3565b91506134f6826134b5565b602082019050919050565b6000602082019050818103600083015261351a816134de565b9050919050565b7f5573657220457869737473210000000000000000000000000000000000000000600082015250565b6000613557600c836125e3565b915061356282613521565b602082019050919050565b600060208201905081810360008301526135868161354a565b9050919050565b7f436f6e74726163746f722063616e74206265207265676973746572656420617360008201527f20757365722e0000000000000000000000000000000000000000000000000000602082015250565b60006135e96026836125e3565b91506135f48261358d565b604082019050919050565b60006020820190508181036000830152613618816135dc565b9050919050565b600081905092915050565b6000613635826125d8565b61363f818561361f565b935061364f8185602086016125f4565b80840191505092915050565b6000613667828461362a565b915081905092915050565b7f496e76616c696420757365720000000000000000000000000000000000000000600082015250565b60006136a8600c836125e3565b91506136b382613672565b602082019050919050565b600060208201905081810360008301526136d78161369b565b9050919050565b7f4f6e6c7920636f6e74726163746f722063616e20776974686472617720746f6b60008201527f656e730000000000000000000000000000000000000000000000000000000000602082015250565b600061373a6023836125e3565b9150613745826136de565b604082019050919050565b600060208201905081810360008301526137698161372d565b9050919050565b7f496e73756666696369656e742062616c616e636520746f207769746864726177600082015250565b60006137a66020836125e3565b91506137b182613770565b602082019050919050565b600060208201905081810360008301526137d581613799565b9050919050565b7f4e487b7100000000000000000000000000000000000000000000000000000000600052600160045260246000fdfea2646970667358221220e0263eb052c2691fd93102267c149c51873f6b792e18b370d6625c72d78624eb64736f6c634300080d0033",
  "immutableReferences": {},
  "source": "//SPDX-License-Identifier: UNLICENSED\npragma solidity ^0.8.0;\n\nimport \"./ERC20.sol\";\n\ncontract TollCoin is ERC20Token {\n    using SafeMath for uint256;\n\n    string public constant name=\"TollCoin\";\n    string public constant symbol=\"TC\";\n    address payable public owner;\n\n    constructor(){\n        owner = payable(msg.sender);\n    }\n\n    struct user{\n        string vehicleNum;\n        string userName;\n        uint256 userBalance;\n        bool userExists;\n    }\n\n    struct contractor{\n        string contractorName;\n        uint256 cBalance;\n        bool cExists;\n    }\n\n    struct rfidUser{\n        address userAd;\n        bool userExist;\n    }\n    uint256[] tollReceipts;\n\n    mapping(address=>user) public UsersReg;\n    mapping(address=>contractor) public ContractorsReg;\n    //Map rfid with address of user\n    mapping(string=>rfidUser) public rfidMap;\n    modifier onlyOwner{        \n        _;\n    }\n\n    modifier onlyContractor{\n        require(contractorExists(msg.sender),\"Only contractor can withdraw tokens\");\n        _;\n    }\n\n\n    //Register new users\n    function newUser(address _userAd,string memory _vehicleNum,string memory _rfidCode,string memory _userName) public returns(bool){\n        require(_userAd!=address(0),\"Invalid address\");\n        require(_userAd!=owner,\"Owner cant be user\");\n        require(UsersReg[_userAd].userExists==false,\"User Exists!\");\n        require(ContractorsReg[_userAd].cExists==false,\"Contractor cant be registered as user.\");\n        UsersReg[_userAd]= user({vehicleNum:_vehicleNum,userName:_userName,userBalance:0,userExists:true});\n        balances[_userAd]=uint256(0);\n        rfidMap[_rfidCode]=rfidUser({userAd:_userAd,userExist:true});\n        return true;\n    }\n    /*\n    function registerUser (address _user, string memory _vehicleNum) public onlyOwner returns (bool) {\n        require(_user!= owner, \"Owner cannot be registered as User!\");\n        require(UserReg[_user].userExists == false, \"User already exists!\");\n        UserReg[_user] = users(_vehicleNum, 0, block.timestamp.sub(1 minutes), true);\n        return true;\n    }*/\n\n    //Register new contractor\n    function newContractor(address _cAdd,string memory _contactorName) public onlyOwner returns(bool){\n        require(_cAdd!=address(0),\"Invalid Address\");\n        require(_cAdd!=owner,\"Owner cant be contractor\");\n        require(UsersReg[_cAdd].userExists==false,\"Registered user cant be contractor\");\n        require(ContractorsReg[_cAdd].cExists==false,\"Contractor already exists\");\n        balances[_cAdd]=0;\n        ContractorsReg[_cAdd]=contractor(_contactorName,0,true);\n        return true;\n    }\n\n    //Check Balance of user\n    function checkBal(address _user) public view returns(uint256){\n        require(_user!=address(0),\"Invalid Address\");\n        require(UsersReg[_user].userExists==true,\"User doesnt exists\");\n        return UsersReg[_user].userBalance;\n    }\n\n    //Get User profile\n    function getUserProfile(address _user)public view returns(string memory,string memory,uint256){\n        require(_user!=address(0),\"Invalid Address\");\n        require(UsersReg[_user].userExists==true,\"User doesnt exists\");\n        return (UsersReg[_user].userName,UsersReg[_user].vehicleNum,UsersReg[_user].userBalance);\n    }\n\n    //Get Contractor profile\n    function getContractorProfile(address _cont) public view returns(string memory,uint256){\n        require(_cont!=address(0),\"Invalid Address\");\n        require(ContractorsReg[address(_cont)].cExists==true,\"User doesnt exists\");\n        return (ContractorsReg[address(_cont)].contractorName,ContractorsReg[_cont].cBalance);\n    }\n\n    //Buy tokens\n    function buyTokens(address _user,uint _token) public payable{\n        require(_user!=address(0),\"Invalid address\");\n        require(UsersReg[_user].userExists==true,\"User doesnt exist\");\n        require(_user.balance>=_token*(0.001 ether),\"Insufficient ether balance in user's account\");\n        if(balances[owner]<=_token*(0.001 ether)){\n            mint(10000,owner);\n        }\n        owner.transfer(_token*(0.001 ether));\n        balances[owner]=balances[owner].sub(_token);\n        balances[_user]=balances[_user].add(_token);\n        UsersReg[_user].userBalance=balances[_user];\n    }\n\n    //Pay toll\n    function payToll(address _cont,address _user,uint256 amount) public returns(bool){\n        require(_cont!=address(0),\"Invalid address of contractor\");\n        require(_user!=address(0),\"Invalid address of user\");\n        require(UsersReg[_user].userExists==true,\"User doesnt exist\");\n        require(ContractorsReg[_cont].cExists==true,\"Contractor doesnt exist\");\n        require(UsersReg[_user].userBalance>=amount,\"Insufficient balance\");\n        transferFrom(_user,_cont,amount);\n        UsersReg[_user].userBalance=balanceOf(_user);\n        ContractorsReg[_cont].cBalance=balanceOf(_cont);\n        uint256 _tollReceipt = uint256(keccak256(abi.encodePacked(_user, block.timestamp))) % 100000000000;\n        tollReceipts.push(_tollReceipt);\n        return true;\n    }\n\n    //Contractor withdraw money\n    function withDrawTokens(address payable _contAdd,uint _tokens) public payable onlyContractor returns(bool){\n        require(ContractorsReg[_contAdd].cExists==true,\"Contractor doesnt exist\");\n        require(ContractorsReg[_contAdd].cBalance>=_tokens,\"Insufficient balance to withdraw\");\n        transferFrom(_contAdd,owner,_tokens);\n        _contAdd.transfer(_tokens*(0.001 ether));\n        ContractorsReg[_contAdd].cBalance=balanceOf(_contAdd);\n        return true;\n    }\n\n    function rfidUserId(string memory rfidCode) public view returns(address){\n        //require(keccak256(abi.encodePacked((rfidCode))) == keccak256(abi.encodePacked((\"\"))),\"RFID code is not valid\");\n        require(rfidMap[rfidCode].userExist==true,\"Invalid user\");\n        return rfidMap[rfidCode].userAd;\n    }\n\n    function contractorExists(address _contAdd) public view returns(bool){\n        return ContractorsReg[_contAdd].cExists;\n    }\n\n}",
  "sourcePath": "/media/dhanesh/New Volume1/tollChain/contracts/TollCoin.sol",
  "compiler": {
    "name": "solc",
    "version": "0.8.13+commit.abaa5c0e.Emscripten.clang"
  },
  "schemaVersion": "3.4.6",
  "updatedAt": "2022-04-16T17:13:23.797Z",
  "networkType": "ethereum",
  "devdoc": {
    "kind": "dev",
    "methods": {},
    "version": 1
  },
  "userdoc": {
    "kind": "user",
    "methods": {},
    "version": 1
  }
}