{
  "contractName": "TollCoin",
  "abi": [
    {
      "inputs": [],
      "stateMutability": "nonpayable",
      "type": "constructor"
    },
    {
      "anonymous": false,
      "inputs": [
        {
          "indexed": true,
          "internalType": "address",
          "name": "from",
          "type": "address"
        },
        {
          "indexed": true,
          "internalType": "address",
          "name": "to",
          "type": "address"
        },
        {
          "indexed": false,
          "internalType": "uint256",
          "name": "value",
          "type": "uint256"
        }
      ],
      "name": "Transfer",
      "type": "event"
    },
    {
      "inputs": [
        {
          "internalType": "address",
          "name": "",
          "type": "address"
        }
      ],
      "name": "ContractorsReg",
      "outputs": [
        {
          "internalType": "string",
          "name": "contractorName",
          "type": "string"
        },
        {
          "internalType": "uint256",
          "name": "cBalance",
          "type": "uint256"
        },
        {
          "internalType": "bool",
          "name": "cExists",
          "type": "bool"
        }
      ],
      "stateMutability": "view",
      "type": "function",
      "constant": true
    },
    {
      "inputs": [
        {
          "internalType": "address",
          "name": "",
          "type": "address"
        }
      ],
      "name": "UsersReg",
      "outputs": [
        {
          "internalType": "string",
          "name": "vehicleNum",
          "type": "string"
        },
        {
          "internalType": "string",
          "name": "userName",
          "type": "string"
        },
        {
          "internalType": "uint256",
          "name": "userBalance",
          "type": "uint256"
        },
        {
          "internalType": "bool",
          "name": "userExists",
          "type": "bool"
        }
      ],
      "stateMutability": "view",
      "type": "function",
      "constant": true
    },
    {
      "inputs": [
        {
          "internalType": "address",
          "name": "tokenOwner",
          "type": "address"
        }
      ],
      "name": "balanceOf",
      "outputs": [
        {
          "internalType": "uint256",
          "name": "",
          "type": "uint256"
        }
      ],
      "stateMutability": "view",
      "type": "function",
      "constant": true
    },
    {
      "inputs": [
        {
          "internalType": "address",
          "name": "",
          "type": "address"
        }
      ],
      "name": "balances",
      "outputs": [
        {
          "internalType": "uint256",
          "name": "",
          "type": "uint256"
        }
      ],
      "stateMutability": "view",
      "type": "function",
      "constant": true
    },
    {
      "inputs": [],
      "name": "decimals",
      "outputs": [
        {
          "internalType": "uint256",
          "name": "",
          "type": "uint256"
        }
      ],
      "stateMutability": "view",
      "type": "function",
      "constant": true
    },
    {
      "inputs": [],
      "name": "name",
      "outputs": [
        {
          "internalType": "string",
          "name": "",
          "type": "string"
        }
      ],
      "stateMutability": "view",
      "type": "function",
      "constant": true
    },
    {
      "inputs": [],
      "name": "owner",
      "outputs": [
        {
          "internalType": "address payable",
          "name": "",
          "type": "address"
        }
      ],
      "stateMutability": "view",
      "type": "function",
      "constant": true
    },
    {
      "inputs": [
        {
          "internalType": "string",
          "name": "",
          "type": "string"
        }
      ],
      "name": "rfidMap",
      "outputs": [
        {
          "internalType": "address",
          "name": "userAd",
          "type": "address"
        },
        {
          "internalType": "bool",
          "name": "userExist",
          "type": "bool"
        }
      ],
      "stateMutability": "view",
      "type": "function",
      "constant": true
    },
    {
      "inputs": [],
      "name": "symbol",
      "outputs": [
        {
          "internalType": "string",
          "name": "",
          "type": "string"
        }
      ],
      "stateMutability": "view",
      "type": "function",
      "constant": true
    },
    {
      "inputs": [],
      "name": "totalSupply",
      "outputs": [
        {
          "internalType": "uint256",
          "name": "",
          "type": "uint256"
        }
      ],
      "stateMutability": "view",
      "type": "function",
      "constant": true
    },
    {
      "inputs": [
        {
          "internalType": "address",
          "name": "sender",
          "type": "address"
        },
        {
          "internalType": "address",
          "name": "recipient",
          "type": "address"
        },
        {
          "internalType": "uint256",
          "name": "amount",
          "type": "uint256"
        }
      ],
      "name": "transferFrom",
      "outputs": [
        {
          "internalType": "bool",
          "name": "",
          "type": "bool"
        }
      ],
      "stateMutability": "nonpayable",
      "type": "function"
    },
    {
      "inputs": [
        {
          "internalType": "address",
          "name": "_userAd",
          "type": "address"
        },
        {
          "internalType": "string",
          "name": "_vehicleNum",
          "type": "string"
        },
        {
          "internalType": "string",
          "name": "_rfidCode",
          "type": "string"
        },
        {
          "internalType": "string",
          "name": "_userName",
          "type": "string"
        }
      ],
      "name": "newUser",
      "outputs": [
        {
          "internalType": "bool",
          "name": "",
          "type": "bool"
        }
      ],
      "stateMutability": "nonpayable",
      "type": "function"
    },
    {
      "inputs": [
        {
          "internalType": "address",
          "name": "_cAdd",
          "type": "address"
        },
        {
          "internalType": "string",
          "name": "_contactorName",
          "type": "string"
        }
      ],
      "name": "newContractor",
      "outputs": [
        {
          "internalType": "bool",
          "name": "",
          "type": "bool"
        }
      ],
      "stateMutability": "nonpayable",
      "type": "function"
    },
    {
      "inputs": [
        {
          "internalType": "address",
          "name": "_user",
          "type": "address"
        }
      ],
      "name": "checkBal",
      "outputs": [
        {
          "internalType": "uint256",
          "name": "",
          "type": "uint256"
        }
      ],
      "stateMutability": "view",
      "type": "function",
      "constant": true
    },
    {
      "inputs": [
        {
          "internalType": "address",
          "name": "_user",
          "type": "address"
        }
      ],
      "name": "getUserProfile",
      "outputs": [
        {
          "internalType": "string",
          "name": "",
          "type": "string"
        },
        {
          "internalType": "string",
          "name": "",
          "type": "string"
        },
        {
          "internalType": "uint256",
          "name": "",
          "type": "uint256"
        }
      ],
      "stateMutability": "view",
      "type": "function",
      "constant": true
    },
    {
      "inputs": [
        {
          "internalType": "address",
          "name": "_cont",
          "type": "address"
        }
      ],
      "name": "getContractorProfile",
      "outputs": [
        {
          "internalType": "string",
          "name": "",
          "type": "string"
        },
        {
          "internalType": "uint256",
          "name": "",
          "type": "uint256"
        }
      ],
      "stateMutability": "view",
      "type": "function",
      "constant": true
    },
    {
      "inputs": [
        {
          "internalType": "address",
          "name": "_user",
          "type": "address"
        },
        {
          "internalType": "uint256",
          "name": "_token",
          "type": "uint256"
        }
      ],
      "name": "buyTokens",
      "outputs": [],
      "stateMutability": "payable",
      "type": "function",
      "payable": true
    },
    {
      "inputs": [
        {
          "internalType": "address",
          "name": "_cont",
          "type": "address"
        },
        {
          "internalType": "address",
          "name": "_user",
          "type": "address"
        },
        {
          "internalType": "uint256",
          "name": "amount",
          "type": "uint256"
        }
      ],
      "name": "payToll",
      "outputs": [
        {
          "internalType": "bool",
          "name": "",
          "type": "bool"
        }
      ],
      "stateMutability": "nonpayable",
      "type": "function"
    },
    {
      "inputs": [
        {
          "internalType": "address payable",
          "name": "_contAdd",
          "type": "address"
        },
        {
          "internalType": "uint256",
          "name": "_tokens",
          "type": "uint256"
        }
      ],
      "name": "withDrawTokens",
      "outputs": [
        {
          "internalType": "bool",
          "name": "",
          "type": "bool"
        }
      ],
      "stateMutability": "payable",
      "type": "function",
      "payable": true
    },
    {
      "inputs": [
        {
          "internalType": "string",
          "name": "rfidCode",
          "type": "string"
        }
      ],
      "name": "rfidUserId",
      "outputs": [
        {
          "internalType": "address",
          "name": "",
          "type": "address"
        }
      ],
      "stateMutability": "view",
      "type": "function",
      "constant": true
    },
    {
      "inputs": [
        {
          "internalType": "address",
          "name": "_contAdd",
          "type": "address"
        }
      ],
      "name": "contractorExists",
      "outputs": [
        {
          "internalType": "bool",
          "name": "",
          "type": "bool"
        }
      ],
      "stateMutability": "view",
      "type": "function",
      "constant": true
    },
    {
      "inputs": [],
      "name": "getTransactionList",
      "outputs": [
        {
          "components": [
            {
              "internalType": "string",
              "name": "vehicleNum",
              "type": "string"
            },
            {
              "internalType": "string",
              "name": "name",
              "type": "string"
            },
            {
              "internalType": "string",
              "name": "contractorName",
              "type": "string"
            },
            {
              "internalType": "uint256",
              "name": "tokenAmount",
              "type": "uint256"
            }
          ],
          "internalType": "struct TollCoin.receipt[]",
          "name": "",
          "type": "tuple[]"
        }
      ],
      "stateMutability": "view",
      "type": "function",
      "constant": true
    }
  ],
  "bytecode": "0x6080604052678ac7230489e8000060015534801561001c57600080fd5b5033600260006101000a81548173ffffffffffffffffffffffffffffffffffffffff021916908373ffffffffffffffffffffffffffffffffffffffff160217905550613df88061006d6000396000f3fe6080604052600436106101355760003560e01c80636ca0022c116100ab57806395d89b411161006f57806395d89b411461049257806397e638bb146104bd578063987ee156146104fa5780639ca079da14610539578063c917c8a914610579578063ea435a12146105b757610135565b80636ca0022c1461037157806370a08231146103b05780637af1f83a146103ed5780638da5cb5b1461042a578063959d52971461045557610135565b806327e235e3116100fd57806327e235e3146102265780632d85ea7e14610263578063313ce5671461028e578063467da8df146102b95780634a77fe19146102f6578063584a09271461033457610135565b806306fdde031461013a5780630752881a146101655780630e451c4d1461018157806318160ddd146101be57806323b872dd146101e9575b600080fd5b34801561014657600080fd5b5061014f6105e7565b60405161015c9190612b6f565b60405180910390f35b61017f600480360381019061017a9190612c39565b610620565b005b34801561018d57600080fd5b506101a860048036038101906101a39190612c79565b610aa8565b6040516101b59190612cc1565b60405180910390f35b3480156101ca57600080fd5b506101d3610b01565b6040516101e09190612ceb565b60405180910390f35b3480156101f557600080fd5b50610210600480360381019061020b9190612d06565b610b0b565b60405161021d9190612cc1565b60405180910390f35b34801561023257600080fd5b5061024d60048036038101906102489190612c79565b610c95565b60405161025a9190612ceb565b60405180910390f35b34801561026f57600080fd5b50610278610cad565b6040516102859190612ee5565b60405180910390f35b34801561029a57600080fd5b506102a3610ecc565b6040516102b09190612ceb565b60405180910390f35b3480156102c557600080fd5b506102e060048036038101906102db9190612d06565b610ed1565b6040516102ed9190612cc1565b60405180910390f35b34801561030257600080fd5b5061031d60048036038101906103189190612c79565b611529565b60405161032b929190612f07565b60405180910390f35b34801561034057600080fd5b5061035b60048036038101906103569190612c79565b61174b565b6040516103689190612ceb565b60405180910390f35b34801561037d57600080fd5b5061039860048036038101906103939190612c79565b61189b565b6040516103a793929190612f37565b60405180910390f35b3480156103bc57600080fd5b506103d760048036038101906103d29190612c79565b61195a565b6040516103e49190612ceb565b60405180910390f35b3480156103f957600080fd5b50610414600480360381019061040f91906130aa565b6119a2565b6040516104219190612cc1565b60405180910390f35b34801561043657600080fd5b5061043f611cc4565b60405161044c9190613127565b60405180910390f35b34801561046157600080fd5b5061047c60048036038101906104779190613142565b611cea565b6040516104899190612cc1565b60405180910390f35b34801561049e57600080fd5b506104a76120e7565b6040516104b49190612b6f565b60405180910390f35b3480156104c957600080fd5b506104e460048036038101906104df91906131fd565b612120565b6040516104f19190613255565b60405180910390f35b34801561050657600080fd5b50610521600480360381019061051c9190612c79565b6121e0565b60405161053093929190613270565b60405180910390f35b34801561054557600080fd5b50610560600480360381019061055b9190612c79565b6124d5565b60405161057094939291906132b5565b60405180910390f35b34801561058557600080fd5b506105a0600480360381019061059b91906131fd565b612622565b6040516105ae929190613308565b60405180910390f35b6105d160048036038101906105cc919061335d565b612689565b6040516105de9190612cc1565b60405180910390f35b6040518060400160405280600881526020017f546f6c6c436f696e00000000000000000000000000000000000000000000000081525081565b600073ffffffffffffffffffffffffffffffffffffffff168273ffffffffffffffffffffffffffffffffffffffff160361068f576040517f08c379a0000000000000000000000000000000000000000000000000000000008152600401610686906133e9565b60405180910390fd5b60011515600460008473ffffffffffffffffffffffffffffffffffffffff1673ffffffffffffffffffffffffffffffffffffffff16815260200190815260200160002060030160009054906101000a900460ff16151514610725576040517f08c379a000000000000000000000000000000000000000000000000000000000815260040161071c90613455565b60405180910390fd5b66038d7ea4c680008161073891906134a4565b8273ffffffffffffffffffffffffffffffffffffffff16311015610791576040517f08c379a000000000000000000000000000000000000000000000000000000000815260040161078890613570565b60405180910390fd5b66038d7ea4c68000816107a491906134a4565b600080600260009054906101000a900473ffffffffffffffffffffffffffffffffffffffff1673ffffffffffffffffffffffffffffffffffffffff1673ffffffffffffffffffffffffffffffffffffffff168152602001908152602001600020541161083a57610838612710600260009054906101000a900473ffffffffffffffffffffffffffffffffffffffff166128ce565b505b600260009054906101000a900473ffffffffffffffffffffffffffffffffffffffff1673ffffffffffffffffffffffffffffffffffffffff166108fc66038d7ea4c680008361088991906134a4565b9081150290604051600060405180830381858888f193505050501580156108b4573d6000803e3d6000fd5b5061092881600080600260009054906101000a900473ffffffffffffffffffffffffffffffffffffffff1673ffffffffffffffffffffffffffffffffffffffff1673ffffffffffffffffffffffffffffffffffffffff168152602001908152602001600020546129e090919063ffffffff16565b600080600260009054906101000a900473ffffffffffffffffffffffffffffffffffffffff1673ffffffffffffffffffffffffffffffffffffffff1673ffffffffffffffffffffffffffffffffffffffff168152602001908152602001600020819055506109dd816000808573ffffffffffffffffffffffffffffffffffffffff1673ffffffffffffffffffffffffffffffffffffffff16815260200190815260200160002054612a0790919063ffffffff16565b6000808473ffffffffffffffffffffffffffffffffffffffff1673ffffffffffffffffffffffffffffffffffffffff168152602001908152602001600020819055506000808373ffffffffffffffffffffffffffffffffffffffff1673ffffffffffffffffffffffffffffffffffffffff16815260200190815260200160002054600460008473ffffffffffffffffffffffffffffffffffffffff1673ffffffffffffffffffffffffffffffffffffffff168152602001908152602001600020600201819055505050565b6000600560008373ffffffffffffffffffffffffffffffffffffffff1673ffffffffffffffffffffffffffffffffffffffff16815260200190815260200160002060020160009054906101000a900460ff169050919050565b6000600154905090565b6000816000808673ffffffffffffffffffffffffffffffffffffffff1673ffffffffffffffffffffffffffffffffffffffff16815260200190815260200160002054610b579190613590565b6000808673ffffffffffffffffffffffffffffffffffffffff1673ffffffffffffffffffffffffffffffffffffffff16815260200190815260200160002081905550816000808573ffffffffffffffffffffffffffffffffffffffff1673ffffffffffffffffffffffffffffffffffffffff16815260200190815260200160002054610be391906135c4565b6000808573ffffffffffffffffffffffffffffffffffffffff1673ffffffffffffffffffffffffffffffffffffffff168152602001908152602001600020819055508273ffffffffffffffffffffffffffffffffffffffff163373ffffffffffffffffffffffffffffffffffffffff167fddf252ad1be2c89b69c2b068fc378daa952ba7f163c4a11628f55a4df523b3ef84604051610c829190612ceb565b60405180910390a3600190509392505050565b60006020528060005260406000206000915090505481565b60606003805480602002602001604051908101604052809291908181526020016000905b82821015610ec35783829060005260206000209060040201604051806080016040529081600082018054610d0490613649565b80601f0160208091040260200160405190810160405280929190818152602001828054610d3090613649565b8015610d7d5780601f10610d5257610100808354040283529160200191610d7d565b820191906000526020600020905b815481529060010190602001808311610d6057829003601f168201915b50505050508152602001600182018054610d9690613649565b80601f0160208091040260200160405190810160405280929190818152602001828054610dc290613649565b8015610e0f5780601f10610de457610100808354040283529160200191610e0f565b820191906000526020600020905b815481529060010190602001808311610df257829003601f168201915b50505050508152602001600282018054610e2890613649565b80601f0160208091040260200160405190810160405280929190818152602001828054610e5490613649565b8015610ea15780601f10610e7657610100808354040283529160200191610ea1565b820191906000526020600020905b815481529060010190602001808311610e8457829003601f168201915b5050505050815260200160038201548152505081526020019060010190610cd1565b50505050905090565b601281565b60008073ffffffffffffffffffffffffffffffffffffffff168473ffffffffffffffffffffffffffffffffffffffff1603610f41576040517f08c379a0000000000000000000000000000000000000000000000000000000008152600401610f38906136c6565b60405180910390fd5b600073ffffffffffffffffffffffffffffffffffffffff168373ffffffffffffffffffffffffffffffffffffffff1603610fb0576040517f08c379a0000000000000000000000000000000000000000000000000000000008152600401610fa790613732565b60405180910390fd5b60011515600460008573ffffffffffffffffffffffffffffffffffffffff1673ffffffffffffffffffffffffffffffffffffffff16815260200190815260200160002060030160009054906101000a900460ff16151514611046576040517f08c379a000000000000000000000000000000000000000000000000000000000815260040161103d90613455565b60405180910390fd5b60011515600560008673ffffffffffffffffffffffffffffffffffffffff1673ffffffffffffffffffffffffffffffffffffffff16815260200190815260200160002060020160009054906101000a900460ff161515146110dc576040517f08c379a00000000000000000000000000000000000000000000000000000000081526004016110d39061379e565b60405180910390fd5b81600460008573ffffffffffffffffffffffffffffffffffffffff1673ffffffffffffffffffffffffffffffffffffffff168152602001908152602001600020600201541015611161576040517f08c379a00000000000000000000000000000000000000000000000000000000081526004016111589061380a565b60405180910390fd5b61116c838584610b0b565b506111768361195a565b600460008573ffffffffffffffffffffffffffffffffffffffff1673ffffffffffffffffffffffffffffffffffffffff168152602001908152602001600020600201819055506111c58461195a565b600560008673ffffffffffffffffffffffffffffffffffffffff1673ffffffffffffffffffffffffffffffffffffffff1681526020019081526020016000206001018190555060006040518060800160405280600460008773ffffffffffffffffffffffffffffffffffffffff1673ffffffffffffffffffffffffffffffffffffffff168152602001908152602001600020600001805461126590613649565b80601f016020809104026020016040519081016040528092919081815260200182805461129190613649565b80156112de5780601f106112b3576101008083540402835291602001916112de565b820191906000526020600020905b8154815290600101906020018083116112c157829003601f168201915b50505050508152602001600460008773ffffffffffffffffffffffffffffffffffffffff1673ffffffffffffffffffffffffffffffffffffffff168152602001908152602001600020600101805461133590613649565b80601f016020809104026020016040519081016040528092919081815260200182805461136190613649565b80156113ae5780601f10611383576101008083540402835291602001916113ae565b820191906000526020600020905b81548152906001019060200180831161139157829003601f168201915b50505050508152602001600560008873ffffffffffffffffffffffffffffffffffffffff1673ffffffffffffffffffffffffffffffffffffffff168152602001908152602001600020600001805461140590613649565b80601f016020809104026020016040519081016040528092919081815260200182805461143190613649565b801561147e5780601f106114535761010080835404028352916020019161147e565b820191906000526020600020905b81548152906001019060200180831161146157829003601f168201915b50505050508152602001848152509050600381908060018154018082558091505060019003906000526020600020906004020160009091909190915060008201518160000190805190602001906114d6929190612a33565b5060208201518160010190805190602001906114f3929190612a33565b506040820151816002019080519060200190611510929190612a33565b5060608201518160030155505060019150509392505050565b606060008073ffffffffffffffffffffffffffffffffffffffff168373ffffffffffffffffffffffffffffffffffffffff160361159b576040517f08c379a000000000000000000000000000000000000000000000000000000000815260040161159290613876565b60405180910390fd5b60011515600560008573ffffffffffffffffffffffffffffffffffffffff1673ffffffffffffffffffffffffffffffffffffffff16815260200190815260200160002060020160009054906101000a900460ff16151514611631576040517f08c379a0000000000000000000000000000000000000000000000000000000008152600401611628906138e2565b60405180910390fd5b600560008473ffffffffffffffffffffffffffffffffffffffff1673ffffffffffffffffffffffffffffffffffffffff168152602001908152602001600020600001600560008573ffffffffffffffffffffffffffffffffffffffff1673ffffffffffffffffffffffffffffffffffffffff168152602001908152602001600020600101548180546116c290613649565b80601f01602080910402602001604051908101604052809291908181526020018280546116ee90613649565b801561173b5780601f106117105761010080835404028352916020019161173b565b820191906000526020600020905b81548152906001019060200180831161171e57829003601f168201915b5050505050915091509150915091565b60008073ffffffffffffffffffffffffffffffffffffffff168273ffffffffffffffffffffffffffffffffffffffff16036117bb576040517f08c379a00000000000000000000000000000000000000000000000000000000081526004016117b290613876565b60405180910390fd5b60011515600460008473ffffffffffffffffffffffffffffffffffffffff1673ffffffffffffffffffffffffffffffffffffffff16815260200190815260200160002060030160009054906101000a900460ff16151514611851576040517f08c379a0000000000000000000000000000000000000000000000000000000008152600401611848906138e2565b60405180910390fd5b600460008373ffffffffffffffffffffffffffffffffffffffff1673ffffffffffffffffffffffffffffffffffffffff168152602001908152602001600020600201549050919050565b60056020528060005260406000206000915090508060000180546118be90613649565b80601f01602080910402602001604051908101604052809291908181526020018280546118ea90613649565b80156119375780601f1061190c57610100808354040283529160200191611937565b820191906000526020600020905b81548152906001019060200180831161191a57829003601f168201915b5050505050908060010154908060020160009054906101000a900460ff16905083565b60008060008373ffffffffffffffffffffffffffffffffffffffff1673ffffffffffffffffffffffffffffffffffffffff168152602001908152602001600020549050919050565b60008073ffffffffffffffffffffffffffffffffffffffff168373ffffffffffffffffffffffffffffffffffffffff1603611a12576040517f08c379a0000000000000000000000000000000000000000000000000000000008152600401611a0990613876565b60405180910390fd5b600260009054906101000a900473ffffffffffffffffffffffffffffffffffffffff1673ffffffffffffffffffffffffffffffffffffffff168373ffffffffffffffffffffffffffffffffffffffff1603611aa2576040517f08c379a0000000000000000000000000000000000000000000000000000000008152600401611a999061394e565b60405180910390fd5b60001515600460008573ffffffffffffffffffffffffffffffffffffffff1673ffffffffffffffffffffffffffffffffffffffff16815260200190815260200160002060030160009054906101000a900460ff16151514611b38576040517f08c379a0000000000000000000000000000000000000000000000000000000008152600401611b2f906139e0565b60405180910390fd5b60001515600560008573ffffffffffffffffffffffffffffffffffffffff1673ffffffffffffffffffffffffffffffffffffffff16815260200190815260200160002060020160009054906101000a900460ff16151514611bce576040517f08c379a0000000000000000000000000000000000000000000000000000000008152600401611bc590613a4c565b60405180910390fd5b60008060008573ffffffffffffffffffffffffffffffffffffffff1673ffffffffffffffffffffffffffffffffffffffff1681526020019081526020016000208190555060405180606001604052808381526020016000815260200160011515815250600560008573ffffffffffffffffffffffffffffffffffffffff1673ffffffffffffffffffffffffffffffffffffffff1681526020019081526020016000206000820151816000019080519060200190611c8c929190612a33565b506020820151816001015560408201518160020160006101000a81548160ff0219169083151502179055509050506001905092915050565b600260009054906101000a900473ffffffffffffffffffffffffffffffffffffffff1681565b60008073ffffffffffffffffffffffffffffffffffffffff168573ffffffffffffffffffffffffffffffffffffffff1603611d5a576040517f08c379a0000000000000000000000000000000000000000000000000000000008152600401611d51906133e9565b60405180910390fd5b600260009054906101000a900473ffffffffffffffffffffffffffffffffffffffff1673ffffffffffffffffffffffffffffffffffffffff168573ffffffffffffffffffffffffffffffffffffffff1603611dea576040517f08c379a0000000000000000000000000000000000000000000000000000000008152600401611de190613ab8565b60405180910390fd5b60001515600460008773ffffffffffffffffffffffffffffffffffffffff1673ffffffffffffffffffffffffffffffffffffffff16815260200190815260200160002060030160009054906101000a900460ff16151514611e80576040517f08c379a0000000000000000000000000000000000000000000000000000000008152600401611e7790613b24565b60405180910390fd5b60001515600560008773ffffffffffffffffffffffffffffffffffffffff1673ffffffffffffffffffffffffffffffffffffffff16815260200190815260200160002060020160009054906101000a900460ff16151514611f16576040517f08c379a0000000000000000000000000000000000000000000000000000000008152600401611f0d90613bb6565b60405180910390fd5b60405180608001604052808581526020018381526020016000815260200160011515815250600460008773ffffffffffffffffffffffffffffffffffffffff1673ffffffffffffffffffffffffffffffffffffffff1681526020019081526020016000206000820151816000019080519060200190611f96929190612a33565b506020820151816001019080519060200190611fb3929190612a33565b506040820151816002015560608201518160030160006101000a81548160ff02191690831515021790555090505060008060008773ffffffffffffffffffffffffffffffffffffffff1673ffffffffffffffffffffffffffffffffffffffff1681526020019081526020016000208190555060405180604001604052808673ffffffffffffffffffffffffffffffffffffffff168152602001600115158152506006846040516120639190613c12565b908152602001604051809103902060008201518160000160006101000a81548173ffffffffffffffffffffffffffffffffffffffff021916908373ffffffffffffffffffffffffffffffffffffffff16021790555060208201518160000160146101000a81548160ff02191690831515021790555090505060019050949350505050565b6040518060400160405280600281526020017f544300000000000000000000000000000000000000000000000000000000000081525081565b6000600115156006836040516121369190613c12565b908152602001604051809103902060000160149054906101000a900460ff16151514612197576040517f08c379a000000000000000000000000000000000000000000000000000000000815260040161218e90613c75565b60405180910390fd5b6006826040516121a79190613c12565b908152602001604051809103902060000160009054906101000a900473ffffffffffffffffffffffffffffffffffffffff169050919050565b60608060008073ffffffffffffffffffffffffffffffffffffffff168473ffffffffffffffffffffffffffffffffffffffff1603612253576040517f08c379a000000000000000000000000000000000000000000000000000000000815260040161224a90613876565b60405180910390fd5b60011515600460008673ffffffffffffffffffffffffffffffffffffffff1673ffffffffffffffffffffffffffffffffffffffff16815260200190815260200160002060030160009054906101000a900460ff161515146122e9576040517f08c379a00000000000000000000000000000000000000000000000000000000081526004016122e0906138e2565b60405180910390fd5b600460008573ffffffffffffffffffffffffffffffffffffffff1673ffffffffffffffffffffffffffffffffffffffff168152602001908152602001600020600101600460008673ffffffffffffffffffffffffffffffffffffffff1673ffffffffffffffffffffffffffffffffffffffff168152602001908152602001600020600001600460008773ffffffffffffffffffffffffffffffffffffffff1673ffffffffffffffffffffffffffffffffffffffff168152602001908152602001600020600201548280546123bc90613649565b80601f01602080910402602001604051908101604052809291908181526020018280546123e890613649565b80156124355780601f1061240a57610100808354040283529160200191612435565b820191906000526020600020905b81548152906001019060200180831161241857829003601f168201915b5050505050925081805461244890613649565b80601f016020809104026020016040519081016040528092919081815260200182805461247490613649565b80156124c15780601f10612496576101008083540402835291602001916124c1565b820191906000526020600020905b8154815290600101906020018083116124a457829003601f168201915b505050505091509250925092509193909250565b60046020528060005260406000206000915090508060000180546124f890613649565b80601f016020809104026020016040519081016040528092919081815260200182805461252490613649565b80156125715780601f1061254657610100808354040283529160200191612571565b820191906000526020600020905b81548152906001019060200180831161255457829003601f168201915b50505050509080600101805461258690613649565b80601f01602080910402602001604051908101604052809291908181526020018280546125b290613649565b80156125ff5780601f106125d4576101008083540402835291602001916125ff565b820191906000526020600020905b8154815290600101906020018083116125e257829003601f168201915b5050505050908060020154908060030160009054906101000a900460ff16905084565b6006818051602081018201805184825260208301602085012081835280955050505050506000915090508060000160009054906101000a900473ffffffffffffffffffffffffffffffffffffffff16908060000160149054906101000a900460ff16905082565b600061269433610aa8565b6126d3576040517f08c379a00000000000000000000000000000000000000000000000000000000081526004016126ca90613d07565b60405180910390fd5b60011515600560008573ffffffffffffffffffffffffffffffffffffffff1673ffffffffffffffffffffffffffffffffffffffff16815260200190815260200160002060020160009054906101000a900460ff16151514612769576040517f08c379a00000000000000000000000000000000000000000000000000000000081526004016127609061379e565b60405180910390fd5b81600560008573ffffffffffffffffffffffffffffffffffffffff1673ffffffffffffffffffffffffffffffffffffffff1681526020019081526020016000206001015410156127ee576040517f08c379a00000000000000000000000000000000000000000000000000000000081526004016127e590613d73565b60405180910390fd5b61281b83600260009054906101000a900473ffffffffffffffffffffffffffffffffffffffff1684610b0b565b508273ffffffffffffffffffffffffffffffffffffffff166108fc66038d7ea4c680008461284991906134a4565b9081150290604051600060405180830381858888f19350505050158015612874573d6000803e3d6000fd5b5061287e8361195a565b600560008573ffffffffffffffffffffffffffffffffffffffff1673ffffffffffffffffffffffffffffffffffffffff168152602001908152602001600020600101819055506001905092915050565b6000826001546128de91906135c4565b600181905550826000808473ffffffffffffffffffffffffffffffffffffffff1673ffffffffffffffffffffffffffffffffffffffff1681526020019081526020016000205461292e91906135c4565b6000808473ffffffffffffffffffffffffffffffffffffffff1673ffffffffffffffffffffffffffffffffffffffff168152602001908152602001600020819055508173ffffffffffffffffffffffffffffffffffffffff16600073ffffffffffffffffffffffffffffffffffffffff167fddf252ad1be2c89b69c2b068fc378daa952ba7f163c4a11628f55a4df523b3ef856040516129ce9190612ceb565b60405180910390a36001905092915050565b6000828211156129f3576129f2613d93565b5b81836129ff9190613590565b905092915050565b6000808284612a1691906135c4565b905083811015612a2957612a28613d93565b5b8091505092915050565b828054612a3f90613649565b90600052602060002090601f016020900481019282612a615760008555612aa8565b82601f10612a7a57805160ff1916838001178555612aa8565b82800160010185558215612aa8579182015b82811115612aa7578251825591602001919060010190612a8c565b5b509050612ab59190612ab9565b5090565b5b80821115612ad2576000816000905550600101612aba565b5090565b600081519050919050565b600082825260208201905092915050565b60005b83811015612b10578082015181840152602081019050612af5565b83811115612b1f576000848401525b50505050565b6000601f19601f8301169050919050565b6000612b4182612ad6565b612b4b8185612ae1565b9350612b5b818560208601612af2565b612b6481612b25565b840191505092915050565b60006020820190508181036000830152612b898184612b36565b905092915050565b6000604051905090565b600080fd5b600080fd5b600073ffffffffffffffffffffffffffffffffffffffff82169050919050565b6000612bd082612ba5565b9050919050565b612be081612bc5565b8114612beb57600080fd5b50565b600081359050612bfd81612bd7565b92915050565b6000819050919050565b612c1681612c03565b8114612c2157600080fd5b50565b600081359050612c3381612c0d565b92915050565b60008060408385031215612c5057612c4f612b9b565b5b6000612c5e85828601612bee565b9250506020612c6f85828601612c24565b9150509250929050565b600060208284031215612c8f57612c8e612b9b565b5b6000612c9d84828501612bee565b91505092915050565b60008115159050919050565b612cbb81612ca6565b82525050565b6000602082019050612cd66000830184612cb2565b92915050565b612ce581612c03565b82525050565b6000602082019050612d006000830184612cdc565b92915050565b600080600060608486031215612d1f57612d1e612b9b565b5b6000612d2d86828701612bee565b9350506020612d3e86828701612bee565b9250506040612d4f86828701612c24565b9150509250925092565b600081519050919050565b600082825260208201905092915050565b6000819050602082019050919050565b600082825260208201905092915050565b6000612da182612ad6565b612dab8185612d85565b9350612dbb818560208601612af2565b612dc481612b25565b840191505092915050565b612dd881612c03565b82525050565b60006080830160008301518482036000860152612dfb8282612d96565b91505060208301518482036020860152612e158282612d96565b91505060408301518482036040860152612e2f8282612d96565b9150506060830151612e446060860182612dcf565b508091505092915050565b6000612e5b8383612dde565b905092915050565b6000602082019050919050565b6000612e7b82612d59565b612e858185612d64565b935083602082028501612e9785612d75565b8060005b85811015612ed35784840389528151612eb48582612e4f565b9450612ebf83612e63565b925060208a01995050600181019050612e9b565b50829750879550505050505092915050565b60006020820190508181036000830152612eff8184612e70565b905092915050565b60006040820190508181036000830152612f218185612b36565b9050612f306020830184612cdc565b9392505050565b60006060820190508181036000830152612f518186612b36565b9050612f606020830185612cdc565b612f6d6040830184612cb2565b949350505050565b600080fd5b600080fd5b7f4e487b7100000000000000000000000000000000000000000000000000000000600052604160045260246000fd5b612fb782612b25565b810181811067ffffffffffffffff82111715612fd657612fd5612f7f565b5b80604052505050565b6000612fe9612b91565b9050612ff58282612fae565b919050565b600067ffffffffffffffff82111561301557613014612f7f565b5b61301e82612b25565b9050602081019050919050565b82818337600083830152505050565b600061304d61304884612ffa565b612fdf565b90508281526020810184848401111561306957613068612f7a565b5b61307484828561302b565b509392505050565b600082601f83011261309157613090612f75565b5b81356130a184826020860161303a565b91505092915050565b600080604083850312156130c1576130c0612b9b565b5b60006130cf85828601612bee565b925050602083013567ffffffffffffffff8111156130f0576130ef612ba0565b5b6130fc8582860161307c565b9150509250929050565b600061311182612ba5565b9050919050565b61312181613106565b82525050565b600060208201905061313c6000830184613118565b92915050565b6000806000806080858703121561315c5761315b612b9b565b5b600061316a87828801612bee565b945050602085013567ffffffffffffffff81111561318b5761318a612ba0565b5b6131978782880161307c565b935050604085013567ffffffffffffffff8111156131b8576131b7612ba0565b5b6131c48782880161307c565b925050606085013567ffffffffffffffff8111156131e5576131e4612ba0565b5b6131f18782880161307c565b91505092959194509250565b60006020828403121561321357613212612b9b565b5b600082013567ffffffffffffffff81111561323157613230612ba0565b5b61323d8482850161307c565b91505092915050565b61324f81612bc5565b82525050565b600060208201905061326a6000830184613246565b92915050565b6000606082019050818103600083015261328a8186612b36565b9050818103602083015261329e8185612b36565b90506132ad6040830184612cdc565b949350505050565b600060808201905081810360008301526132cf8187612b36565b905081810360208301526132e38186612b36565b90506132f26040830185612cdc565b6132ff6060830184612cb2565b95945050505050565b600060408201905061331d6000830185613246565b61332a6020830184612cb2565b9392505050565b61333a81613106565b811461334557600080fd5b50565b60008135905061335781613331565b92915050565b6000806040838503121561337457613373612b9b565b5b600061338285828601613348565b925050602061339385828601612c24565b9150509250929050565b7f496e76616c696420616464726573730000000000000000000000000000000000600082015250565b60006133d3600f83612ae1565b91506133de8261339d565b602082019050919050565b60006020820190508181036000830152613402816133c6565b9050919050565b7f5573657220646f65736e74206578697374000000000000000000000000000000600082015250565b600061343f601183612ae1565b915061344a82613409565b602082019050919050565b6000602082019050818103600083015261346e81613432565b9050919050565b7f4e487b7100000000000000000000000000000000000000000000000000000000600052601160045260246000fd5b60006134af82612c03565b91506134ba83612c03565b9250817fffffffffffffffffffffffffffffffffffffffffffffffffffffffffffffffff04831182151516156134f3576134f2613475565b5b828202905092915050565b7f496e73756666696369656e742065746865722062616c616e636520696e20757360008201527f65722773206163636f756e740000000000000000000000000000000000000000602082015250565b600061355a602c83612ae1565b9150613565826134fe565b604082019050919050565b600060208201905081810360008301526135898161354d565b9050919050565b600061359b82612c03565b91506135a683612c03565b9250828210156135b9576135b8613475565b5b828203905092915050565b60006135cf82612c03565b91506135da83612c03565b9250827fffffffffffffffffffffffffffffffffffffffffffffffffffffffffffffffff0382111561360f5761360e613475565b5b828201905092915050565b7f4e487b7100000000000000000000000000000000000000000000000000000000600052602260045260246000fd5b6000600282049050600182168061366157607f821691505b6020821081036136745761367361361a565b5b50919050565b7f496e76616c69642061646472657373206f6620636f6e74726163746f72000000600082015250565b60006136b0601d83612ae1565b91506136bb8261367a565b602082019050919050565b600060208201905081810360008301526136df816136a3565b9050919050565b7f496e76616c69642061646472657373206f662075736572000000000000000000600082015250565b600061371c601783612ae1565b9150613727826136e6565b602082019050919050565b6000602082019050818103600083015261374b8161370f565b9050919050565b7f436f6e74726163746f7220646f65736e74206578697374000000000000000000600082015250565b6000613788601783612ae1565b915061379382613752565b602082019050919050565b600060208201905081810360008301526137b78161377b565b9050919050565b7f496e73756666696369656e742062616c616e6365000000000000000000000000600082015250565b60006137f4601483612ae1565b91506137ff826137be565b602082019050919050565b60006020820190508181036000830152613823816137e7565b9050919050565b7f496e76616c696420416464726573730000000000000000000000000000000000600082015250565b6000613860600f83612ae1565b915061386b8261382a565b602082019050919050565b6000602082019050818103600083015261388f81613853565b9050919050565b7f5573657220646f65736e74206578697374730000000000000000000000000000600082015250565b60006138cc601283612ae1565b91506138d782613896565b602082019050919050565b600060208201905081810360008301526138fb816138bf565b9050919050565b7f4f776e65722063616e7420626520636f6e74726163746f720000000000000000600082015250565b6000613938601883612ae1565b915061394382613902565b602082019050919050565b600060208201905081810360008301526139678161392b565b9050919050565b7f5265676973746572656420757365722063616e7420626520636f6e747261637460008201527f6f72000000000000000000000000000000000000000000000000000000000000602082015250565b60006139ca602283612ae1565b91506139d58261396e565b604082019050919050565b600060208201905081810360008301526139f9816139bd565b9050919050565b7f436f6e74726163746f7220616c72656164792065786973747300000000000000600082015250565b6000613a36601983612ae1565b9150613a4182613a00565b602082019050919050565b60006020820190508181036000830152613a6581613a29565b9050919050565b7f4f776e65722063616e7420626520757365720000000000000000000000000000600082015250565b6000613aa2601283612ae1565b9150613aad82613a6c565b602082019050919050565b60006020820190508181036000830152613ad181613a95565b9050919050565b7f5573657220457869737473210000000000000000000000000000000000000000600082015250565b6000613b0e600c83612ae1565b9150613b1982613ad8565b602082019050919050565b60006020820190508181036000830152613b3d81613b01565b9050919050565b7f436f6e74726163746f722063616e74206265207265676973746572656420617360008201527f20757365722e0000000000000000000000000000000000000000000000000000602082015250565b6000613ba0602683612ae1565b9150613bab82613b44565b604082019050919050565b60006020820190508181036000830152613bcf81613b93565b9050919050565b600081905092915050565b6000613bec82612ad6565b613bf68185613bd6565b9350613c06818560208601612af2565b80840191505092915050565b6000613c1e8284613be1565b915081905092915050565b7f496e76616c696420757365720000000000000000000000000000000000000000600082015250565b6000613c5f600c83612ae1565b9150613c6a82613c29565b602082019050919050565b60006020820190508181036000830152613c8e81613c52565b9050919050565b7f4f6e6c7920636f6e74726163746f722063616e20776974686472617720746f6b60008201527f656e730000000000000000000000000000000000000000000000000000000000602082015250565b6000613cf1602383612ae1565b9150613cfc82613c95565b604082019050919050565b60006020820190508181036000830152613d2081613ce4565b9050919050565b7f496e73756666696369656e742062616c616e636520746f207769746864726177600082015250565b6000613d5d602083612ae1565b9150613d6882613d27565b602082019050919050565b60006020820190508181036000830152613d8c81613d50565b9050919050565b7f4e487b7100000000000000000000000000000000000000000000000000000000600052600160045260246000fdfea26469706673582212202a4f759d1eea067a0ebe28a59542d01b5342db60158760c9872597c14449e40564736f6c634300080d0033",
  "immutableReferences": {},
  "source": "//SPDX-License-Identifier: UNLICENSED\npragma solidity ^0.8.0;\n\nimport \"./ERC20.sol\";\n\ncontract TollCoin is ERC20Token {\n    using SafeMath for uint256;\n\n    string public constant name=\"TollCoin\";\n    string public constant symbol=\"TC\";\n    address payable public owner;\n\n    constructor(){\n        owner = payable(msg.sender);\n    }\n\n    struct user{\n        string vehicleNum;\n        string userName;\n        uint256 userBalance;\n        bool userExists;\n    }\n\n    struct contractor{\n        string contractorName;\n        uint256 cBalance;\n        bool cExists;\n    }\n\n    struct rfidUser{\n        address userAd;\n        bool userExist;\n    }\n\n    struct receipt{\n        string vehicleNum;\n        string name;\n        string contractorName;\n        uint256 tokenAmount;\n    }\n    receipt[] tollReceipts;\n\n    mapping(address=>user) public UsersReg;\n    mapping(address=>contractor) public ContractorsReg;\n    //Map rfid with address of user\n    mapping(string=>rfidUser) public rfidMap;\n    modifier onlyOwner{        \n        _;\n    }\n\n    modifier onlyContractor{\n        require(contractorExists(msg.sender),\"Only contractor can withdraw tokens\");\n        _;\n    }\n\n\n    //Register new users\n    function newUser(address _userAd,string memory _vehicleNum,string memory _rfidCode,string memory _userName) public returns(bool){\n        require(_userAd!=address(0),\"Invalid address\");\n        require(_userAd!=owner,\"Owner cant be user\");\n        require(UsersReg[_userAd].userExists==false,\"User Exists!\");\n        require(ContractorsReg[_userAd].cExists==false,\"Contractor cant be registered as user.\");\n        UsersReg[_userAd]= user({vehicleNum:_vehicleNum,userName:_userName,userBalance:0,userExists:true});\n        balances[_userAd]=uint256(0);\n        rfidMap[_rfidCode]=rfidUser({userAd:_userAd,userExist:true});\n        return true;\n    }\n    /*\n    function registerUser (address _user, string memory _vehicleNum) public onlyOwner returns (bool) {\n        require(_user!= owner, \"Owner cannot be registered as User!\");\n        require(UserReg[_user].userExists == false, \"User already exists!\");\n        UserReg[_user] = users(_vehicleNum, 0, block.timestamp.sub(1 minutes), true);\n        return true;\n    }*/\n\n    //Register new contractor\n    function newContractor(address _cAdd,string memory _contactorName) public onlyOwner returns(bool){\n        require(_cAdd!=address(0),\"Invalid Address\");\n        require(_cAdd!=owner,\"Owner cant be contractor\");\n        require(UsersReg[_cAdd].userExists==false,\"Registered user cant be contractor\");\n        require(ContractorsReg[_cAdd].cExists==false,\"Contractor already exists\");\n        balances[_cAdd]=0;\n        ContractorsReg[_cAdd]=contractor(_contactorName,0,true);\n        return true;\n    }\n\n    //Check Balance of user\n    function checkBal(address _user) public view returns(uint256){\n        require(_user!=address(0),\"Invalid Address\");\n        require(UsersReg[_user].userExists==true,\"User doesnt exists\");\n        return UsersReg[_user].userBalance;\n    }\n\n    //Get User profile\n    function getUserProfile(address _user)public view returns(string memory,string memory,uint256){\n        require(_user!=address(0),\"Invalid Address\");\n        require(UsersReg[_user].userExists==true,\"User doesnt exists\");\n        return (UsersReg[_user].userName,UsersReg[_user].vehicleNum,UsersReg[_user].userBalance);\n    }\n\n    //Get Contractor profile\n    function getContractorProfile(address _cont) public view returns(string memory,uint256){\n        require(_cont!=address(0),\"Invalid Address\");\n        require(ContractorsReg[address(_cont)].cExists==true,\"User doesnt exists\");\n        return (ContractorsReg[address(_cont)].contractorName,ContractorsReg[_cont].cBalance);\n    }\n\n    //Buy tokens\n    function buyTokens(address _user,uint _token) public payable{\n        require(_user!=address(0),\"Invalid address\");\n        require(UsersReg[_user].userExists==true,\"User doesnt exist\");\n        require(_user.balance>=_token*(0.001 ether),\"Insufficient ether balance in user's account\");\n        if(balances[owner]<=_token*(0.001 ether)){\n            mint(10000,owner);\n        }\n        owner.transfer(_token*(0.001 ether));\n        balances[owner]=balances[owner].sub(_token);\n        balances[_user]=balances[_user].add(_token);\n        UsersReg[_user].userBalance=balances[_user];\n    }\n\n    //Pay toll\n    function payToll(address _cont,address _user,uint256 amount) public returns(bool){\n        require(_cont!=address(0),\"Invalid address of contractor\");\n        require(_user!=address(0),\"Invalid address of user\");\n        require(UsersReg[_user].userExists==true,\"User doesnt exist\");\n        require(ContractorsReg[_cont].cExists==true,\"Contractor doesnt exist\");\n        require(UsersReg[_user].userBalance>=amount,\"Insufficient balance\");\n        transferFrom(_user,_cont,amount);\n        UsersReg[_user].userBalance=balanceOf(_user);\n        ContractorsReg[_cont].cBalance=balanceOf(_cont);\n        receipt memory _tollReceipt = receipt(UsersReg[_user].vehicleNum,UsersReg[_user].userName,ContractorsReg[_cont].contractorName,amount);\n        tollReceipts.push(_tollReceipt);\n        return true;\n    }\n\n    //Contractor withdraw money\n    function withDrawTokens(address payable _contAdd,uint _tokens) public payable onlyContractor returns(bool){\n        require(ContractorsReg[_contAdd].cExists==true,\"Contractor doesnt exist\");\n        require(ContractorsReg[_contAdd].cBalance>=_tokens,\"Insufficient balance to withdraw\");\n        transferFrom(_contAdd,owner,_tokens);\n        _contAdd.transfer(_tokens*(0.001 ether));\n        ContractorsReg[_contAdd].cBalance=balanceOf(_contAdd);\n        return true;\n    }\n\n    function rfidUserId(string memory rfidCode) public view returns(address){\n        //require(keccak256(abi.encodePacked((rfidCode))) == keccak256(abi.encodePacked((\"\"))),\"RFID code is not valid\");\n        require(rfidMap[rfidCode].userExist==true,\"Invalid user\");\n        return rfidMap[rfidCode].userAd;\n    }\n\n    function contractorExists(address _contAdd) public view returns(bool){\n        return ContractorsReg[_contAdd].cExists;\n    }\n\n    function getTransactionList() public view onlyOwner returns(receipt[] memory){\n        return tollReceipts;\n    }\n\n}",
  "sourcePath": "/media/dhanesh/New Volume1/tollChain/contracts/TollCoin.sol",
  "compiler": {
    "name": "solc",
    "version": "0.8.13+commit.abaa5c0e.Emscripten.clang"
  },
  "schemaVersion": "3.4.6",
  "updatedAt": "2022-04-19T05:14:07.712Z",
  "networkType": "ethereum",
  "devdoc": {
    "kind": "dev",
    "methods": {},
    "version": 1
  },
  "userdoc": {
    "kind": "user",
    "methods": {},
    "version": 1
  }
}